:020000040800F2
:1000000038040020C10100084D040008CD03000899
:1000100049040008AB0200082B0E00080000000095
:100020000000000000000000000000004906000879
:10003000AF02000800000000DD0400086D070008A2
:10004000DB010008DB010008DB010008DB01000820
:10005000DB010008DB010008DB010008DB01000810
:10006000DB010008DB010008DB010008DB01000800
:10007000DB010008DB010008DB010008DB010008F0
:10008000DB010008DB010008DB010008DB010008E0
:10009000DB010008DB010008DB010008DB010008D0
:1000A000DB010008DB010008DB010008DB010008C0
:1000B000A1080008DB010008DB010008DB010008E3
:1000C000DB010008DB010008DB010008DB010008A0
:1000D000DB010008DB010008DB010008110C00084F
:1000E000DB010008DB010008DB010008DB01000880
:1000F000DB010008DB010008DB010008DB01000870
:10010000DB010008DB010008DB010008DB0100085F
:10011000DB010008DB010008DB010008DB0100084F
:10012000DB010008DB010008DB010008DB0100083F
:10013000DB010008DB010008DB010008DB0100082F
:10014000DB010008DB010008DB010008DB0100081F
:10015000DB010008DB010008DB010008DB0100080F
:10016000DB010008DB010008DB010008DB010008FF
:10017000DB010008DB010008DB010008DB010008EF
:10018000DB010008DB010008DB010008DB010008DF
:10019000DB010008DB010008DB010008DB010008CF
:1001A000DB010008DB010008DB010008DFF80CD0F0
:1001B00000F04AF800480047F9120008380400200F
:1001C0000648804706480047FEE7FEE7FEE7FEE7F1
:1001D000FEE7FEE7FEE7FEE7FEE7FEE7DD070008D5
:1001E000AD0100082DE9F05F0546002092469B46D0
:1001F00088460646814640241BE02846414647463D
:10020000224600F042F853465A46C01A914110D394
:1002100011461846224600F029F82D1A67EB01080E
:100220004F4622460120002100F020F817EB00097C
:100230004E41201EA4F10104DFDC484631462A4627
:100240004346BDE8F09F0000064C074D06E0E0681D
:1002500040F0010394E8070098471034AC42F6D30D
:10026000FFF7A8FF0014000820140008202A04DB70
:10027000203A00FA02F1002070479140C2F12003B9
:1002800020FA03F3194390407047202A04DB203AF8
:1002900021FA02F00021704721FA02F3D040C2F1A6
:1002A0002002914008431946704700BFFEE770479F
:1002B00001B504490098086000BF024800680028A2
:1002C000FBD108BD00000020F0B50A460021002344
:1002D000002400BF3DE0012505FA01F3156805EA99
:1002E00003049C4234D105684F000326BE40B54349
:1002F000056015794E00B5400668354305601579EF
:10030000012D02D01579022D16D185684F000326E4
:10031000BE40B543856055794E00B540866835438B
:100320008560456801268E40B543456045689679ED
:100330008E40B6B235434560C5684F000326BE40C7
:10034000B543C560D5794E00B540C6683543C56034
:10035000491C1029BFD3F0BDF0B5002300244D0780
:10036000ED0E02FA05F3CE1000F1200555F82650E7
:100370004E07F70E0F26BE40B543CF1000F1200602
:1003800046F82750CE1000F1200555F8265045EAD2
:100390000304CE1000F1200545F82640F0BD41834E
:1003A00070470183704700000648006806490860EE
:1003B0000448001F006848600248083800688860E8
:1003C00070470000187AFF1F2C00002000BFFEE7D6
:1003D0001CB50121402000F083F84FF4005000903C
:1003E00001208DF8040002208DF8050000208DF812
:1003F000060001208DF8070069461248FFF764FFE8
:100400000121402000F06CF84FF480400090012062
:100410008DF8040002208DF8050000208DF80600FC
:1004200001208DF8070069460648FFF74DFF4FF49D
:1004300000510448FFF7B3FF4FF480410148FFF734
:10044000AEFF1CBD0018024000BFFEE77047000071
:1004500070B5002100230F22C4781CB3174C246808
:1004600004F4E064C4F5E064C4F30721C1F10404BA
:10047000E3B20A4144789C40E1B2847814402143BD
:100480000C07210E0E4C05786155047804F01F0509
:100490000124AC4005786D11AD0005F1E025C5F8EB
:1004A000004109E0047804F01F050124AC40054D2B
:1004B0000678761145F8264070BD00000CED00E08E
:1004C00000E400E080E100E002490143024A1160DB
:1004D000704700000000FA050CED00E070470000D6
:1004E00029B1064A12680243044B1A6004E0034A29
:1004F00012688243014B1A60704700003038024096
:1005000029B1064A12680243044B1A6004E0034A08
:1005100012688243014B1A60704700004038024065
:1005200029B1064A12680243044B1A6004E0034AE8
:1005300012688243014B1A60704700002038024065
:1005400029B1064A12680243044B1A6004E0034AC8
:1005500012688243014B1A60704700002438024041
:10056000F0B5002100220024022500260223324F8C
:100570003F6807F00C0121B1042905D0082937D1C3
:1005800005E02E4F076036E02D4F076033E02A4F1D
:100590003F1F3F68C7F38056274F3F1F3F6807F054
:1005A0003F036EB1264FB7FBF3F7DFF88CC0ACF119
:1005B000040CDCF800C0CCF3881C07FB0CF40CE046
:1005C0001E4FB7FBF3F7DFF870C0ACF1040CDCF89A
:1005D00000C0CCF3881C07FB0CF4174F3F1F3F688B
:1005E000C7F301477F1C7D00B4FBF5F7076002E00D
:1005F000124F076000BF00BF0F4F3F6807F0F001C8
:100600000909104F7A5C0768D74047600A4F3F6876
:1006100007F4E051890A0B4F7A5C4768D74087603E
:10062000054F3F6807F46041490B064F7A5C476805
:10063000D740C760F0BD0000083802400024F40035
:1006400000127A0004000020704700000CB5002062
:10065000019000904148006840F480303F490860B4
:1006600000BF3E48006800F4003000900198401C34
:100670000190009818B90198B0F5A04FF1D1374812
:10068000006800F4003010B10120009001E000206B
:1006900000900098012860D130484030006840F058
:1006A00080502E49403108602D48006840F4404099
:1006B0002B4908602948083000682849083108603B
:1006C0000846006840F4004008600846006840F4AE
:1006D000A05008602348091F0860081F006840F008
:1006E0008070091F086000BF1C48006800F000709F
:1006F0000028F9D01A48006840F480301849086092
:1007000000BF1748406800F480300028F9D0144832
:10071000006840F400301249086000BF104840688B
:1007200000F400300028F9D040F205700E4908604E
:100730000A480830006820F00300084908310860C2
:100740000846006840F00200086000BF0348083017
:10075000006800F00C000828F8D10CBD00380240F9
:1007600000700040085A4007003C024000B500F00D
:10077000F1F900BD30B5164800684FF47A72B0FB4D
:10078000F2F1481EB0F1807F01D301201BE0481E2A
:100790004FF0E022506150170F22002807DA1307AC
:1007A0001D0E0C4B00F00F04241F1D5503E0130712
:1007B0001C0E094B1C5400BF00204FF0E02290613A
:1007C00007201061002008B100BFFEE730BD000027
:1007D0001400002018ED00E000E400E010B515481A
:1007E000006840F47000134908601348006840F046
:1007F00001001149086000200F49083108600E48C7
:1008000000680E4908400C4908600D48091D086041
:10081000081F006820F48020091F08600020064996
:100820000C310860FFF712FF4FF00060014980397A
:10083000086010BD88ED00E000380240FFFFF6FEC2
:100840001030002410B500F003F800F038F810BDA7
:100850000EB501210846FFF753FE4FF0804000F02F
:1008600055F84FF47A70019045F2E370ADF800004E
:100870000020ADF80800ADF8020069464FF0804056
:1008800000F026F90121880700F02EF80122114618
:10089000900700F014F90121880700F02BF80EBD35
:1008A00010B50121880700F0F9F838B10121880757
:1008B00000F01AF80121880700F019F810BD08B5FA
:1008C0004FF44070FFF700FE1C208DF8000003205D
:1008D0008DF8010000208DF8020001208DF8030042
:1008E0006846FFF7B5FD08BDCA4302827047CA4398
:1008F0000282704721B1028842F00102028004E0C6
:1009000002884FF6FE731A400280704710B5044605
:100910005548844208D101210846FFF711FE002105
:100920000120FFF70DFE9DE0B4F1804F08D10121B9
:100930000846FFF7F5FD00210120FFF7F1FD91E0EA
:100940004A48844208D101210220FFF7E9FD002135
:100950000220FFF7E5FD85E04548844208D10121EA
:100960000420FFF7DDFD00210420FFF7D9FD79E029
:100970004048844208D101210820FFF7D1FD002121
:100980000820FFF7CDFD6DE03B48844208D10121EE
:100990001020FFF7C5FD00211020FFF7C1FD61E029
:1009A0003648844208D101212020FFF7B9FD0021FB
:1009B0002020FFF7B5FD55E03148844208D10121E0
:1009C0000220FFF7BDFD00210220FFF7B9FD49E03D
:1009D0002C48844209D101210804FFF7B1FD002110
:1009E0004FF48030FFF7ACFD3CE02748844209D14A
:1009F00001214804FFF7A4FD00214FF40030FFF768
:100A00009FFD2FE02148844209D101218804FFF78E
:100A100097FD00214FF48020FFF792FD22E01C4853
:100A2000844208D101214020FFF77AFD00214020B7
:100A3000FFF776FD16E01748844208D10121802097
:100A4000FFF76EFD00218020FFF76AFD0AE01248E3
:100A5000844207D101218015FFF762FD0021A01516
:100A6000FFF75EFD10BD00000000014000040040E3
:100A700000080040000C004000100040001400403E
:100A80000004014000400140004401400048014092
:100A900000180040001C00400020004030B5024615
:100AA000002000230024158A05EA0103958905EA40
:100AB000010413B10CB1012000E0002030BD1AB1D7
:100AC00083890B43838102E083898B438381704751
:100AD00000220288184B98420ED0184B98420BD037
:100AE000B0F1804F08D0164B984205D0154B984274
:100AF00002D0154B984204D14FF68F731A404B88A1
:100B00001A43124B984207D0114B984204D04FF62B
:100B1000FF431A400B891A4302804B68C3620B885B
:100B20000385054B984202D0044B984201D18B7A41
:100B300003860123838270470000014000040140C6
:100B40000004004000080040000C0040001000407D
:100B5000001400400448006820B103480068401EAB
:100B600001490860704700000000002010B50446ED
:100B7000204600F003F800F065F810BD10B586B00F
:100B8000044601210820FFF7ABFC01218804FFF790
:100B9000B7FC072208211C48FFF7DEFB07220921CA
:100BA0001948FFF7D9FB4FF48070049002208DF8AC
:100BB000140004A91448FFF787FB4FF40070049059
:100BC00002208DF8140004A90F48FFF77DFB009464
:100BD0000020ADF80400ADF80600ADF80800ADF84F
:100BE0000C000C20ADF80A006946084800F0AAF88D
:100BF000012240F22551054800F07EF8012103480A
:100C000000F044F806B010BD000C0240004800405F
:100C100010B540F22551094800F044F860B140F2A7
:100C20002551064800F023F8044800F0F5F8C4B256
:100C3000214603A000F0FCF810BD00000048004071
:100C40002563000008B54FF44070FFF73DFC2720F6
:100C50008DF8000002208DF8010000208DF80200C0
:100C600001208DF803006846FFF7F2FB08BD10B5C0
:100C70000022002340F66A14A14200D100BF0A12EC
:100C800001249440A3B2DC43048010BD21B18289C9
:100C900042F40052828104E082894DF6FF731A40CB
:100CA0008281704770B50246002400230025002091
:100CB00040F66A16B14200D100BFC1F3421501F0FF
:100CC0001F03012606FA03F3012D02D19689334052
:100CD00006E0022D02D1168A334001E0968A3340A5
:100CE0000C12012606FA04F41688344013B10CB134
:100CF000012000E0002070BDF0B50346002400266E
:100D00000025002040F66A17B94200D100BF1846FE
:100D1000C1F3421401F01F06012707FA06F5012C62
:100D200001D10C3004E0022C01D1103000E014306D
:100D30001AB107682F43076002E00768AF430760F6
:100D4000F0BD00002DE9FF4705460E460024A146F0
:100D500000BFA046B08900B100BF2C8A24F44054E3
:100D6000F08804432C82AC8941F20C608443B08843
:100D700031890843718908430443AC81AC8A24F467
:100D80004074B0890443AC826846FFF7E9FB204811
:100D9000854202D01F48854202D1DDF80C9001E067
:100DA000DDF80890A88900F4004040B109EBC900C3
:100DB00000EB091031684900B0FBF1F707E009EBDF
:100DC000C90000EB091031688900B0FBF1F764201D
:100DD000B7FBF0F004012009642101FB1078A88919
:100DE00000F4004040B1322000EBC800B0FBF1F04D
:100DF00000F00700044308E0322000EB08106421F3
:100E0000B0FBF1F000F00F0004432C81BDE8FF8738
:100E1000001001400014014001468888C0F308001A
:100E20007047C1F308028280704700BFFEE70000F0
:100E30000FB4054B10B503A9044A029800F018F846
:100E400010BC5DF814FB0000D5120008280000203B
:100E500002E008C8121F08C1002AFAD17047704783
:100E6000002001E001C1121F002AFBD170470000E1
:100E70002DE9FF4F8DB00F460546002606E02528D8
:100E80000BD0DDE90F1290476D1C761C28780028E6
:100E9000F5D111B03046BDE8F08F0024A246A1463E
:100EA0000122EC4900E0044315F8013F203B02FA1F
:100EB00003F00842F7D128782A2810D06FF02F02CB
:100EC0002878A0F13001092914D80AEB8A0102EB35
:100ED000410144F0020400EB010A6D1CF0E701CF70
:100EE0005FEA000A03D544F40054CAF1000A44F052
:100EF00002046D1C28782E2817D115F8010F44F034
:100F000004042A280ED06FF02F022878A0F13001B7
:100F100009290AD809EB890102EB410100EB01091B
:100F20006D1CF2E757F8049B6D1C28786C280FD0D5
:100F300006DC4C2817D068280DD06A2814D104E0AC
:100F4000742810D07A280FD10DE044F400140AE080
:100F500044F4801401E044F440146978814202D1E1
:100F600004F580146D1C6D1C2A786E2A1FD00CDCD1
:100F7000632A31D004DC002A8BD0582A11D1A3E097
:100F8000642A68D0692A0CD165E0732A2ED004DC6B
:100F90006F2A73D0702A04D19BE0752A6FD0782A0B
:100FA0006ED01046DDE90F129047761C50E1C4F375
:100FB0000250022806D0032809D0042801CF09D006
:100FC000066045E101CFF117C0E9006140E101CFC2
:100FD00006803DE106703BE117F8040B8DF8000038
:100FE00000208DF80100EB46012003E057F804BB18
:100FF0004FF0FF3061074FF0000102D40DE008F11F
:101000000101884649450FDA8045F8DB1BF80810D6
:101010000029F4D108E008F1010188468142FADB99
:101020001BF808100029F6D1DDE90F23AAEB080010
:101030008146214600F036F9304400EB080604E012
:10104000DDE90F121BF8010B9047B8F10108F7D248
:1010500021464846F7E00A21C4F302534FF0000B43
:101060000891022B04D001CFC117032B09D00AE04D
:10107000FF1D27F00707F7E8020108E032E01FE054
:1010800020E000B2C117042B01D140B2C117031EEA
:1010900071F1000307DA4FF0000CD0EB0C006CEBA1
:1010A00001012D2302E0230504D52B238DF82430E4
:1010B000012303E0E30701D02023F7E7984658E037
:1010C0000A2110E010210EE010204FF0000B0890D4
:1010D0000CE010214FF0000B44F004044FF008091D
:1010E000089103E008214FF0000B0891C4F302536C
:1010F000022B04D001CF0021032B06D006E0FF1DF8
:1011000027F00707F7E8020103E080B2042B00D1C3
:10111000C0B24FF0000823072BD5702A07D0DDF8A6
:1011200020C08CF0100C5CEA0B0C05D00EE04023C4
:101130008DF82430012308E050EA010306D0302363
:101140008DF824308DF8252002239846DDF820C044
:101150008CF0080C5CEA0B0C0BD150EA010301D1B6
:10116000630706D530238DF824304FF00108A9F12C
:101170000109582A04D038A20B9208AA0A920BE05F
:101180003AA2F9E75B46089AFFF72CF80B9B9B5CA9
:101190000A9A521E0A92137050EA0102F2D10A987A
:1011A000ADEB000000F1200B600702D524F4803481
:1011B00001E04FF00109D94502DDA9EB0B0000E089
:1011C000002000EB0B0141440890AAEB010AE00368
:1011D00006D4DDE90F232146504600F063F80644AB
:1011E0004FF0000908E009A911F80900DDE90F1224
:1011F000904709F10109761CC145F4DBE0030CD5E9
:10120000DDE90F232146504600F04CF8064404E087
:10121000DDE90F1230209047761C0899481E08908F
:101220000029F5DC08E00A980A990078491C0A911F
:10123000DDE90F129047761CBBF10001ABF1010B09
:10124000F1DC21465046DDE90F2300F019F8064491
:101250006D1C1BE609280100303132333435363736
:1012600038396162636465660000000030313233F2
:101270003435363738394142434445460000000092
:101280002DE9F041044600251E461746880404D483
:1012900005E039462020B0476D1C641EF9D528466C
:1012A000BDE8F0812DE9F041044600251E46904638
:1012B000C80301D5302700E02027880404D505E0C5
:1012C00041463846B0476D1C641EF9D52846BDE836
:1012D000F081000070B504460D46E1B20548FFF705
:1012E000A0FD00BF0348008800F080000028F9D06E
:1012F000204670BD00480040FFF73CFAFFF768F851
:10130000FFF7A0FA4FF4E130FFF730FC4FF4005143
:101310001E48FFF744F84FF480411C48FFF73FF8A0
:10132000FFF742F81AA0FFF783FD2348836842685D
:10133000016822A0FFF77CFD2948006881B229A03E
:10134000FFF776FD20E04FF4FA60FEF7B1FF4FF4AF
:1013500000510E48FFF725F86420FEF7A9FF4FF46F
:1013600000510A48FFF71BF86420FEF7A1FF4FF475
:1013700000510648FFF715F8C820FEF799FF4FF413
:1013800000510248FFF70BF8DDE7000000180240AB
:1013900053544D33324634323920446973636F7687
:1013A000657279205379737469636B205465737423
:1013B000204F4B21210D0A002C000020436869704A
:1013C00020494420697320307825303858203078FF
:1013D00025303858203078253038582E0D0A000036
:1013E000227AFF1F436869702053697A6520697308
:1013F000202564204B42797465732E0D0A0000008D
:1014000020140008000000202C000000500E0008EE
:101410004C1400082C0000200C040000600E000892
:1014200000000000000000000102030401020304A8
:10143000060708090095BA0A000000000000000035
:0C14400001020304060708090000000078
:04000005080001AD41
:00000001FF
